{
  "_format": "hh-sol-artifact-1",
  "contractName": "BuyMeACoffee",
  "sourceName": "contracts/BuyMeACoffee.sol",
  "abi": [
    {
      "inputs": [],
      "stateMutability": "nonpayable",
      "type": "constructor"
    },
    {
      "anonymous": false,
      "inputs": [
        {
          "indexed": true,
          "internalType": "address",
          "name": "from",
          "type": "address"
        },
        {
          "indexed": false,
          "internalType": "string",
          "name": "message",
          "type": "string"
        },
        {
          "indexed": false,
          "internalType": "string",
          "name": "name",
          "type": "string"
        },
        {
          "indexed": false,
          "internalType": "uint256",
          "name": "timestamp",
          "type": "uint256"
        }
      ],
      "name": "NewMemo",
      "type": "event"
    },
    {
      "inputs": [
        {
          "internalType": "string",
          "name": "_name",
          "type": "string"
        },
        {
          "internalType": "string",
          "name": "_message",
          "type": "string"
        }
      ],
      "name": "buyCoffee",
      "outputs": [],
      "stateMutability": "payable",
      "type": "function"
    },
    {
      "inputs": [
        {
          "internalType": "string",
          "name": "_name",
          "type": "string"
        },
        {
          "internalType": "string",
          "name": "_message",
          "type": "string"
        }
      ],
      "name": "buyLargeCoffee",
      "outputs": [],
      "stateMutability": "payable",
      "type": "function"
    },
    {
      "inputs": [
        {
          "internalType": "address payable",
          "name": "newOwner",
          "type": "address"
        }
      ],
      "name": "changeWithdrawAddress",
      "outputs": [],
      "stateMutability": "nonpayable",
      "type": "function"
    },
    {
      "inputs": [],
      "name": "getMemos",
      "outputs": [
        {
          "components": [
            {
              "internalType": "address",
              "name": "from",
              "type": "address"
            },
            {
              "internalType": "string",
              "name": "message",
              "type": "string"
            },
            {
              "internalType": "string",
              "name": "name",
              "type": "string"
            },
            {
              "internalType": "uint256",
              "name": "timestamp",
              "type": "uint256"
            }
          ],
          "internalType": "struct BuyMeACoffee.Memo[]",
          "name": "",
          "type": "tuple[]"
        }
      ],
      "stateMutability": "view",
      "type": "function"
    },
    {
      "inputs": [],
      "name": "withdrawTips",
      "outputs": [],
      "stateMutability": "nonpayable",
      "type": "function"
    }
  ],
  "bytecode": "0x608060405234801561001057600080fd5b50336000806101000a81548173ffffffffffffffffffffffffffffffffffffffff021916908373ffffffffffffffffffffffffffffffffffffffff160217905550610f54806100606000396000f3fe60806040526004361061004a5760003560e01c80631453671d1461004f578063204206e1146100785780633aaa74b214610094578063417f9ea9146100ab578063865c5172146100c7575b600080fd5b34801561005b57600080fd5b50610076600480360381019061007191906108cb565b6100f2565b005b610092600480360381019061008d91906108f4565b6101c3565b005b3480156100a057600080fd5b506100a961034b565b005b6100c560048036038101906100c091906108f4565b610439565b005b3480156100d357600080fd5b506100dc6105c8565b6040516100e99190610b5b565b60405180910390f35b3373ffffffffffffffffffffffffffffffffffffffff1660008054906101000a900473ffffffffffffffffffffffffffffffffffffffff1673ffffffffffffffffffffffffffffffffffffffff1614610180576040517f08c379a000000000000000000000000000000000000000000000000000000000815260040161017790610be2565b60405180910390fd5b806000806101000a81548173ffffffffffffffffffffffffffffffffffffffff021916908373ffffffffffffffffffffffffffffffffffffffff16021790555050565b60003411610206576040517f08c379a00000000000000000000000000000000000000000000000000000000081526004016101fd90610c02565b60405180910390fd5b600160405180608001604052803373ffffffffffffffffffffffffffffffffffffffff16815260200183815260200184815260200142815250908060018154018082558091505060019003906000526020600020906004020160009091909190915060008201518160000160006101000a81548173ffffffffffffffffffffffffffffffffffffffff021916908373ffffffffffffffffffffffffffffffffffffffff16021790555060208201518160010190805190602001906102cb9291906107ab565b5060408201518160020190805190602001906102e89291906107ab565b506060820151816003015550503373ffffffffffffffffffffffffffffffffffffffff167fd42e89b4c5fbb2f2d060a3f55bf87f221232809d3b09e1833bd8f7e03227558082844260405161033f93929190610b7d565b60405180910390a25050565b3373ffffffffffffffffffffffffffffffffffffffff1660008054906101000a900473ffffffffffffffffffffffffffffffffffffffff1673ffffffffffffffffffffffffffffffffffffffff16146103d9576040517f08c379a00000000000000000000000000000000000000000000000000000000081526004016103d090610be2565b60405180910390fd5b60008054906101000a900473ffffffffffffffffffffffffffffffffffffffff1673ffffffffffffffffffffffffffffffffffffffff166108fc479081150290604051600060405180830381858888f1935050505061043757600080fd5b565b660aa87bee538000341015610483576040517f08c379a000000000000000000000000000000000000000000000000000000000815260040161047a90610bc2565b60405180910390fd5b600160405180608001604052803373ffffffffffffffffffffffffffffffffffffffff16815260200183815260200184815260200142815250908060018154018082558091505060019003906000526020600020906004020160009091909190915060008201518160000160006101000a81548173ffffffffffffffffffffffffffffffffffffffff021916908373ffffffffffffffffffffffffffffffffffffffff16021790555060208201518160010190805190602001906105489291906107ab565b5060408201518160020190805190602001906105659291906107ab565b506060820151816003015550503373ffffffffffffffffffffffffffffffffffffffff167fd42e89b4c5fbb2f2d060a3f55bf87f221232809d3b09e1833bd8f7e0322755808284426040516105bc93929190610b7d565b60405180910390a25050565b60606001805480602002602001604051908101604052809291908181526020016000905b828210156107a257838290600052602060002090600402016040518060800160405290816000820160009054906101000a900473ffffffffffffffffffffffffffffffffffffffff1673ffffffffffffffffffffffffffffffffffffffff1673ffffffffffffffffffffffffffffffffffffffff16815260200160018201805461067590610d6e565b80601f01602080910402602001604051908101604052809291908181526020018280546106a190610d6e565b80156106ee5780601f106106c3576101008083540402835291602001916106ee565b820191906000526020600020905b8154815290600101906020018083116106d157829003601f168201915b5050505050815260200160028201805461070790610d6e565b80601f016020809104026020016040519081016040528092919081815260200182805461073390610d6e565b80156107805780601f1061075557610100808354040283529160200191610780565b820191906000526020600020905b81548152906001019060200180831161076357829003601f168201915b50505050508152602001600382015481525050815260200190600101906105ec565b50505050905090565b8280546107b790610d6e565b90600052602060002090601f0160209004810192826107d95760008555610820565b82601f106107f257805160ff1916838001178555610820565b82800160010185558215610820579182015b8281111561081f578251825591602001919060010190610804565b5b50905061082d9190610831565b5090565b5b8082111561084a576000816000905550600101610832565b5090565b600061086161085c84610c47565b610c22565b90508281526020810184848401111561087957600080fd5b610884848285610d2c565b509392505050565b60008135905061089b81610f07565b92915050565b600082601f8301126108b257600080fd5b81356108c284826020860161084e565b91505092915050565b6000602082840312156108dd57600080fd5b60006108eb8482850161088c565b91505092915050565b6000806040838503121561090757600080fd5b600083013567ffffffffffffffff81111561092157600080fd5b61092d858286016108a1565b925050602083013567ffffffffffffffff81111561094a57600080fd5b610956858286016108a1565b9150509250929050565b600061096c8383610ad3565b905092915050565b61097d81610cde565b82525050565b600061098e82610c88565b6109988185610cab565b9350836020820285016109aa85610c78565b8060005b858110156109e657848403895281516109c78582610960565b94506109d283610c9e565b925060208a019950506001810190506109ae565b50829750879550505050505092915050565b6000610a0382610c93565b610a0d8185610cbc565b9350610a1d818560208601610d3b565b610a2681610e2f565b840191505092915050565b6000610a3c82610c93565b610a468185610ccd565b9350610a56818560208601610d3b565b610a5f81610e2f565b840191505092915050565b6000610a77602a83610ccd565b9150610a8282610e40565b604082019050919050565b6000610a9a602283610ccd565b9150610aa582610e8f565b604082019050919050565b6000610abd601b83610ccd565b9150610ac882610ede565b602082019050919050565b6000608083016000830151610aeb6000860182610974565b5060208301518482036020860152610b0382826109f8565b91505060408301518482036040860152610b1d82826109f8565b9150506060830151610b326060860182610b3d565b508091505092915050565b610b4681610d22565b82525050565b610b5581610d22565b82525050565b60006020820190508181036000830152610b758184610983565b905092915050565b60006060820190508181036000830152610b978186610a31565b90508181036020830152610bab8185610a31565b9050610bba6040830184610b4c565b949350505050565b60006020820190508181036000830152610bdb81610a6a565b9050919050565b60006020820190508181036000830152610bfb81610a8d565b9050919050565b60006020820190508181036000830152610c1b81610ab0565b9050919050565b6000610c2c610c3d565b9050610c388282610da0565b919050565b6000604051905090565b600067ffffffffffffffff821115610c6257610c61610e00565b5b610c6b82610e2f565b9050602081019050919050565b6000819050602082019050919050565b600081519050919050565b600081519050919050565b6000602082019050919050565b600082825260208201905092915050565b600082825260208201905092915050565b600082825260208201905092915050565b6000610ce982610d02565b9050919050565b6000610cfb82610d02565b9050919050565b600073ffffffffffffffffffffffffffffffffffffffff82169050919050565b6000819050919050565b82818337600083830152505050565b60005b83811015610d59578082015181840152602081019050610d3e565b83811115610d68576000848401525b50505050565b60006002820490506001821680610d8657607f821691505b60208210811415610d9a57610d99610dd1565b5b50919050565b610da982610e2f565b810181811067ffffffffffffffff82111715610dc857610dc7610e00565b5b80604052505050565b7f4e487b7100000000000000000000000000000000000000000000000000000000600052602260045260246000fd5b7f4e487b7100000000000000000000000000000000000000000000000000000000600052604160045260246000fd5b6000601f19601f8301169050919050565b7f54686174206973206e6f7420656e6f75676820666f722061206c61726765206360008201527f6f666665652c2070616c00000000000000000000000000000000000000000000602082015250565b7f596f752063616e6e6f7420646f20746869732e204f6e6c7920746865206f776e60008201527f6572000000000000000000000000000000000000000000000000000000000000602082015250565b7f63616e277420627579206120636f6666656520666f7220667265650000000000600082015250565b610f1081610cf0565b8114610f1b57600080fd5b5056fea2646970667358221220b5595b4d88b0188a0a677b122f044754e1c41d3ea57f4053f1ca0a44dc03793164736f6c63430008040033",
  "linkReferences": {},
  "deployedLinkReferences": {}
}